{
  "address": "0x125933626e9AAadCDe4D776e2fC31d2e715Bc1d3",
  "abi": [
    {
      "inputs": [
        {
          "internalType": "address",
          "name": "_factory",
          "type": "address"
        }
      ],
      "stateMutability": "nonpayable",
      "type": "constructor"
    },
    {
      "inputs": [
        {
          "internalType": "address",
          "name": "tokenA",
          "type": "address"
        },
        {
          "internalType": "address",
          "name": "tokenB",
          "type": "address"
        },
        {
          "internalType": "uint256",
          "name": "amountADesired",
          "type": "uint256"
        },
        {
          "internalType": "uint256",
          "name": "amountBDesired",
          "type": "uint256"
        },
        {
          "internalType": "uint256",
          "name": "amountAMin",
          "type": "uint256"
        },
        {
          "internalType": "uint256",
          "name": "amountBMin",
          "type": "uint256"
        },
        {
          "internalType": "address",
          "name": "to",
          "type": "address"
        },
        {
          "internalType": "uint256",
          "name": "deadline",
          "type": "uint256"
        }
      ],
      "name": "addLiquidity",
      "outputs": [
        {
          "internalType": "uint256",
          "name": "amountA",
          "type": "uint256"
        },
        {
          "internalType": "uint256",
          "name": "amountB",
          "type": "uint256"
        },
        {
          "internalType": "uint256",
          "name": "liquidity",
          "type": "uint256"
        }
      ],
      "stateMutability": "nonpayable",
      "type": "function"
    },
    {
      "inputs": [],
      "name": "factory",
      "outputs": [
        {
          "internalType": "address",
          "name": "",
          "type": "address"
        }
      ],
      "stateMutability": "view",
      "type": "function"
    },
    {
      "inputs": [
        {
          "internalType": "uint256",
          "name": "amountOut",
          "type": "uint256"
        },
        {
          "internalType": "address[]",
          "name": "path",
          "type": "address[]"
        }
      ],
      "name": "getAmountsIn",
      "outputs": [
        {
          "internalType": "uint256[]",
          "name": "amounts",
          "type": "uint256[]"
        }
      ],
      "stateMutability": "view",
      "type": "function"
    },
    {
      "inputs": [
        {
          "internalType": "uint256",
          "name": "amountIn",
          "type": "uint256"
        },
        {
          "internalType": "address[]",
          "name": "path",
          "type": "address[]"
        }
      ],
      "name": "getAmountsOut",
      "outputs": [
        {
          "internalType": "uint256[]",
          "name": "amounts",
          "type": "uint256[]"
        }
      ],
      "stateMutability": "view",
      "type": "function"
    },
    {
      "inputs": [
        {
          "internalType": "address",
          "name": "tokenA",
          "type": "address"
        },
        {
          "internalType": "address",
          "name": "tokenB",
          "type": "address"
        },
        {
          "internalType": "uint256",
          "name": "liquidity",
          "type": "uint256"
        },
        {
          "internalType": "uint256",
          "name": "amountAMin",
          "type": "uint256"
        },
        {
          "internalType": "uint256",
          "name": "amountBMin",
          "type": "uint256"
        },
        {
          "internalType": "address",
          "name": "to",
          "type": "address"
        },
        {
          "internalType": "uint256",
          "name": "deadline",
          "type": "uint256"
        }
      ],
      "name": "removeLiquidity",
      "outputs": [
        {
          "internalType": "uint256",
          "name": "amountA",
          "type": "uint256"
        },
        {
          "internalType": "uint256",
          "name": "amountB",
          "type": "uint256"
        }
      ],
      "stateMutability": "nonpayable",
      "type": "function"
    },
    {
      "inputs": [
        {
          "internalType": "uint256",
          "name": "amountIn",
          "type": "uint256"
        },
        {
          "internalType": "uint256",
          "name": "amountOutMin",
          "type": "uint256"
        },
        {
          "internalType": "address[]",
          "name": "path",
          "type": "address[]"
        },
        {
          "internalType": "address",
          "name": "to",
          "type": "address"
        },
        {
          "internalType": "uint256",
          "name": "deadline",
          "type": "uint256"
        }
      ],
      "name": "swapExactTokensForTokens",
      "outputs": [
        {
          "internalType": "uint256[]",
          "name": "amounts",
          "type": "uint256[]"
        }
      ],
      "stateMutability": "nonpayable",
      "type": "function"
    },
    {
      "inputs": [
        {
          "internalType": "uint256",
          "name": "amountOut",
          "type": "uint256"
        },
        {
          "internalType": "uint256",
          "name": "amountInMax",
          "type": "uint256"
        },
        {
          "internalType": "address[]",
          "name": "path",
          "type": "address[]"
        },
        {
          "internalType": "address",
          "name": "to",
          "type": "address"
        },
        {
          "internalType": "uint256",
          "name": "deadline",
          "type": "uint256"
        }
      ],
      "name": "swapTokensForExactTokens",
      "outputs": [
        {
          "internalType": "uint256[]",
          "name": "amounts",
          "type": "uint256[]"
        }
      ],
      "stateMutability": "nonpayable",
      "type": "function"
    }
  ],
  "transactionHash": "0x89b61f0b93d81944f5d0cb0aa41ed59d790417561afe4e33a14459928e25da39",
  "args": [
    "0xA5f8f44614D6ADAcF924bc3143E0356d9A37A748"
  ],
  "numDeployments": 1,
  "solcInputHash": "50f148701f10ff3011b07be7eaa091fb",
  "bytecode": "0x60a03461007757601f61142a38819003918201601f19168301916001600160401b0383118484101761007c5780849260209460405283398101031261007757516001600160a01b0381168103610077576080526040516113979081610093823960805181818160ea015281816103820152610d030152f35b600080fd5b634e487b7160e01b600052604160045260246000fdfe6040608081526004908136101561001557600080fd5b600091823560e01c80631f00ca74146106d257806338ed1739146106695780638803dbee14610548578063baa2abde146103b1578063c45a01551461036d578063d06ca61f1461033d5763e8e337001461006e57600080fd5b346103395761010036600319011261033957610088610739565b91610091610754565b916044359060643560c43560018060a01b0392888483168093036103365787946100bf4260e43510156108b4565b875163e6a4390560e01b81526001600160a01b03808c168583019081529716602088810191909152967f0000000000000000000000000000000000000000000000000000000000000000831691908890829081906040010381855afa90811561032c5791838c928695948b9998979161030f575b501615610281575b50610146908c610dba565b9690801580610279575b156101fd57506024949596506101859080999c8d9c5b61017e6101738284610cca565b9e8f8094339061123e565b339061123e565b8851998a9586946335313c2160e11b8652850152165af19384156101f35786946101bc575b50606095508251948552840152820152f35b9080945081813d83116101ec575b6101d481836106e9565b810103126101e857606095505192386101aa565b8580fd5b503d6101ca565b83513d88823e3d90fd5b61020888828c610ef7565b9782891161023357505050610185602494959661022960a43582101561094d565b80999c8d9c610166565b9194965091949650610246925083610ef7565b9586116102665791896024926101858796956102296084358b1015610909565b634e487b7160e01b8a526001835260248afd5b508715610150565b8a516364e329cb60e11b81526001600160a01b03808f16828801908152931660208401529596949593949293929183919082908790829060400103925af1801561030557908795949392916102d8575b8a9061013b565b6102f790863d88116102fe575b6102ef81836106e9565b8101906108ea565b50386102d1565b503d6102e5565b89513d85823e3d90fd5b6103269150893d8b116102fe576102ef81836106e9565b38610133565b8a513d86823e3d90fd5b80fd5b8280fd5b505034610369576103659061035a610354366107c8565b90610fd2565b90519182918261080c565b0390f35b5080fd5b505034610369578160031936011261036957517f00000000000000000000000000000000000000000000000000000000000000006001600160a01b03168152602090f35b508290346103695760e0366003190112610369576103cd610739565b6103d5610754565b926001600160a01b039060a43582811690819003610369576103fb4260c43510156108b4565b6104058685610cca565b87516323b872dd60e01b8152338188019081526001600160a01b0383166020828101919091526044356040830152928616979290829081906060010381878b5af1801561053e57916024918a9493610510575b50848451988994859363226bf2d160e21b85528401525af194851561050457819482966104ca575b509061048d839285610c2c565b509050169116146000146104c557905b6104ab606435831015610909565b6104b960843582101561094d565b82519182526020820152f35b61049d565b87809297508196503d83116104fd575b6104e481836106e9565b810103126103365783516020909401519461048d610480565b503d6104da565b508551903d90823e3d90fd5b6105309060203d8111610537575b61052881836106e9565b810190610991565b508a610458565b503d61051e565b89513d86823e3d90fd5b509190346103695761058361057261055f36610847565b98939896929590969491944211156108b4565b61057d36858761076a565b90611117565b9561058d876109a9565b511161062d57811561061a576105a283610a2c565b906105ac84610a2c565b9083600110156106075761036588886105fd896105f78a8a6105f08b6105de8c6105d860208701610a2c565b90610cca565b6105e78a6109a9565b5191339061123e565b369161076a565b84610a65565b519182918261080c565b634e487b7160e01b815260328952602490fd5b634e487b7160e01b815260328752602490fd5b845162461bcd60e51b81526020818901526016602482015275115610d154d4d2559157d25394155517d05353d5539560521b6044820152606490fd5b509190346103695761068b61068061055f36610847565b61035436858761076a565b95865160001981019081116106bf57906106a86106b092896109cc565b5110156109e0565b811561061a576105a283610a2c565b634e487b7160e01b835260118952602483fd5b505034610369576103659061035a61057d366107c8565b90601f8019910116810190811067ffffffffffffffff82111761070b57604052565b634e487b7160e01b600052604160045260246000fd5b67ffffffffffffffff811161070b5760051b60200190565b600435906001600160a01b038216820361074f57565b600080fd5b602435906001600160a01b038216820361074f57565b929161077582610721565b9161078360405193846106e9565b829481845260208094019160051b810192831161074f57905b8282106107a95750505050565b81356001600160a01b038116810361074f57815290830190830161079c565b90604060031983011261074f57600435916024359067ffffffffffffffff821161074f578060238301121561074f578160246108099360040135910161076a565b90565b6020908160408183019282815285518094520193019160005b828110610833575050505090565b835185529381019392810192600101610825565b9060a060031983011261074f57600435916024359160443567ffffffffffffffff9283821161074f578060238301121561074f57816004013593841161074f5760248460051b8301011161074f5760240191906064356001600160a01b038116810361074f579060843590565b156108bb57565b60405162461bcd60e51b81526020600482015260076024820152661156141254915160ca1b6044820152606490fd5b9081602091031261074f57516001600160a01b038116810361074f5790565b1561091057565b60405162461bcd60e51b8152602060048201526015602482015274125394d551919250d251539517d057d05353d55395605a1b6044820152606490fd5b1561095457565b60405162461bcd60e51b8152602060048201526015602482015274125394d551919250d251539517d097d05353d55395605a1b6044820152606490fd5b9081602091031261074f5751801515810361074f5790565b8051156109b65760200190565b634e487b7160e01b600052603260045260246000fd5b80518210156109b65760209160051b010190565b156109e757565b60405162461bcd60e51b815260206004820152601a60248201527f494e53554646494349454e545f4f55545055545f414d4f554e540000000000006044820152606490fd5b356001600160a01b038116810361074f5790565b6000198114610a4f5760010190565b634e487b7160e01b600052601160045260246000fd5b92919260005b82516000198101908111610a4f57811015610c25576001600160a01b0380610a9383866109cc565b51169060018301808411610a4f5781610aac82886109cc565b51169082610ac5610abd8487610c2c565b5092886109cc565b5191168403610c1d57600090915b87516001198101908111610a4f578490871015610c11575060028601808711610a4f578491610b1183610b09610b17948d6109cc565b511682610cca565b96610cca565b1692604093845160208082019367ffffffffffffffff948381108682111761070b57885260008352833b1561074f5797919290875198899363022c0d9f60e01b855260049788860152602498898601521660448401526080606484015283519081608485015260005b828110610bfa575050600080945083918260a49183838284010152601f801991011681010301925af18015610bef57610bc7575b5050505050610bc290610a40565b610a6b565b8411610bdc57505052610bc238808080610bb4565b604190634e487b7160e01b600052526000fd5b84513d6000823e3d90fd5b8086018201518b820160a401528a94508101610b80565b90610b17908b96610cca565b600091610ad3565b5050509050565b90916001600160a01b0391828416838216808214610c8f571015610c8a57925b91831615610c5657565b60405162461bcd60e51b815260206004820152600c60248201526b5a45524f5f4144445245535360a01b6044820152606490fd5b610c4c565b60405162461bcd60e51b81526020600482015260136024820152724944454e544943414c5f41444452455353455360681b6044820152606490fd5b90610cd491610c2c565b60405163e6a4390560e01b81526001600160a01b039283166004820152908216602482015291906020836044817f000000000000000000000000000000000000000000000000000000000000000085165afa928315610d9a57600093610d7a575b50821615610d3f57565b60405162461bcd60e51b81526020600482015260136024820152721410525497d113d154d7d393d517d1561254d5606a1b6044820152606490fd5b610d9391935060203d81116102fe576102ef81836106e9565b9138610d35565b6040513d6000823e3d90fd5b51906001600160701b038216820361074f57565b600490610ddf6060610dcc8584610c2c565b50946001600160a01b0392839185610cca565b1660405194858092630240bc6b60e21b82525afa928315610d9a576000908194610e27575b5081906001600160701b0380911694169416911614600014610e235791565b9091565b93506060843d8211610e77575b81610e41606093836106e9565b8101031261033657610e5284610da6565b906040610e6160208701610da6565b95015163ffffffff811603610336575081610e04565b3d9150610e34565b15610e8657565b60405162461bcd60e51b8152602060048201526016602482015275494e53554646494349454e545f4c495155494449545960501b6044820152606490fd5b81810292918115918404141715610a4f57565b8115610ee1570490565b634e487b7160e01b600052601260045260246000fd5b8015610f2a5761080992610f1c9183151580610f21575b610f1790610e7f565b610ec4565b610ed7565b50811515610f0e565b60405162461bcd60e51b8152602060048201526013602482015272125394d551919250d251539517d05353d55395606a1b6044820152606490fd5b15610f6c57565b60405162461bcd60e51b815260206004820152600c60248201526b0929cac82989288bea082a8960a31b6044820152606490fd5b90610faa82610721565b610fb760405191826106e9565b8281528092610fc8601f1991610721565b0190602036910137565b919091610fe3600284511015610f65565b610fed8351610fa0565b90610ff7826109a9565b5260005b83516000198101908111610a4f57811015611112576001600160a01b03908161102482876109cc565b5116916001820192838311610a4f576110499161104185896109cc565b511690610dba565b929061105583866109cc565b5180156110cd578115948515806110c4575b61107090610e7f565b6103e580830292830403610a4f576110889082610ec4565b946103e8808402938404141715610a4f578101809111610a4f576110b26110b9916110bf95610ed7565b91856109cc565b52610a40565b610ffb565b50801515611067565b60405162461bcd60e51b815260206004820152601960248201527f494e53554646494349454e545f494e5055545f414d4f554e54000000000000006044820152606490fd5b509150565b919091611128600284511015610f65565b6111328351610fa0565b9283519160001992838101908111610a4f5761114e90866109cc565b528051828101908111610a4f57805b61116657505050565b828101818111611220576111936001600160a01b038061118684876109cc565b51169061104185876109cc565b906111c06111a1858a6109cc565b5180926111af8215156109e0565b8015158061123557610f1790610e7f565b916103e8928381029381850414901517156112205781810391818311611220576103e58084029384041491141715611220576111fb91610ed7565b90600182018092116112205761121190876109cc565b5280156112205782018061115d565b60246000634e487b7160e01b81526011600452fd5b50841515610f0e565b6040516323b872dd60e01b60208083019182526001600160a01b0394851660248401529490931660448201526064808201959095529384529192601f199291906112896084826106e9565b600092839283809351925af1913d15611358573d67ffffffffffffffff8111611344576112c08560405193601f84011601836106e9565b81528091843d92013e5b81611314575b50156112d95750565b6064906040519062461bcd60e51b8252600482015260146024820152731514905394d1915497d19493d357d1905253115160621b6044820152fd5b8051801592508390831561132c575b505050386112d0565b61133c9350820181019101610991565b388281611323565b634e487b7160e01b83526041600452602483fd5b505060606112ca56fea26469706673582212205e1e91d8f875a5bb71a0a17d5f0bbbe7246e3d874158d8e1152e44ab97a96c1564736f6c63430008140033",
  "devdoc": {
    "kind": "dev",
    "methods": {},
    "version": 1
  },
  "userdoc": {
    "kind": "user",
    "methods": {},
    "version": 1
  },
  "storageLayout": {
    "storage": [],
    "types": null
  }
}