{
  "address": "0x58c9E1905b263f7cDC2D71754d9fDeC91E427437",
  "abi": [
    {
      "inputs": [],
      "stateMutability": "nonpayable",
      "type": "constructor"
    },
    {
      "anonymous": false,
      "inputs": [
        {
          "indexed": true,
          "internalType": "address",
          "name": "supporter",
          "type": "address"
        },
        {
          "indexed": false,
          "internalType": "uint256",
          "name": "amount",
          "type": "uint256"
        },
        {
          "indexed": false,
          "internalType": "string",
          "name": "message",
          "type": "string"
        },
        {
          "indexed": false,
          "internalType": "uint256",
          "name": "timestamp",
          "type": "uint256"
        }
      ],
      "name": "CoffeeBought",
      "type": "event"
    },
    {
      "inputs": [
        {
          "internalType": "string",
          "name": "message",
          "type": "string"
        }
      ],
      "name": "buyCoffee",
      "outputs": [],
      "stateMutability": "payable",
      "type": "function"
    },
    {
      "inputs": [
        {
          "internalType": "uint256",
          "name": "",
          "type": "uint256"
        }
      ],
      "name": "contributions",
      "outputs": [
        {
          "internalType": "address",
          "name": "supporter",
          "type": "address"
        },
        {
          "internalType": "uint256",
          "name": "amount",
          "type": "uint256"
        },
        {
          "internalType": "string",
          "name": "message",
          "type": "string"
        },
        {
          "internalType": "uint256",
          "name": "timestamp",
          "type": "uint256"
        }
      ],
      "stateMutability": "view",
      "type": "function"
    },
    {
      "inputs": [],
      "name": "getContributions",
      "outputs": [
        {
          "components": [
            {
              "internalType": "address",
              "name": "supporter",
              "type": "address"
            },
            {
              "internalType": "uint256",
              "name": "amount",
              "type": "uint256"
            },
            {
              "internalType": "string",
              "name": "message",
              "type": "string"
            },
            {
              "internalType": "uint256",
              "name": "timestamp",
              "type": "uint256"
            }
          ],
          "internalType": "struct BuyMeCoffee.Contribution[]",
          "name": "",
          "type": "tuple[]"
        }
      ],
      "stateMutability": "view",
      "type": "function"
    },
    {
      "inputs": [],
      "name": "owner",
      "outputs": [
        {
          "internalType": "address",
          "name": "",
          "type": "address"
        }
      ],
      "stateMutability": "view",
      "type": "function"
    },
    {
      "inputs": [
        {
          "internalType": "address",
          "name": "newOwner",
          "type": "address"
        }
      ],
      "name": "setOwner",
      "outputs": [],
      "stateMutability": "nonpayable",
      "type": "function"
    },
    {
      "inputs": [],
      "name": "withdraw",
      "outputs": [],
      "stateMutability": "nonpayable",
      "type": "function"
    }
  ],
  "transactionHash": "0x40e03021e9a34bbcaf62cdaea7414ca0921e7445d075c717258ce284476f1f09",
  "args": [],
  "numDeployments": 1,
  "solcInputHash": "852a6ff8ef40027bbbc7994b982504ea",
  "bytecode": "0x6080806040523461002857600080546001600160a01b031916331790556108bd908161002e8239f35b600080fdfe608060408181526004908136101561001657600080fd5b600092833560e01c90816313af403514610629575080631cee0700146105ac5780632b371b54146102a45780633ccfd60b146102035780638da5cb5b146101d75763dda0a81a1461006657600080fd5b346101d357826003193601126101d357600190815467ffffffffffffffff81116101c0579390929183516020956100a2878260051b018361077f565b80825282845286820194847fb10e2d527612073b26eecdfd717e6a320cf44b4afac2b0732d9fcbe2b7fa0cf6875b84831061016757505050505084519586958187019282885251809352808701818460051b8901019695915b8483106101085788880389f35b9193959750919384808298603f198c82030186528a519060018060a01b03825116815282820151838201526101498683015160808089850152830190610847565b916060809101519101529901930193019092889796949295936100fb565b95838b8b97999c98839b9c5161017c8161074d565b85546001600160a01b03168152848601548382015261019d600287016107a1565b8a82015260038601546060820152815201920192019190999694989795996100d0565b634e487b7160e01b855260418452602485fd5b8280fd5b8382346101ff57816003193601126101ff57905490516001600160a01b039091168152602090f35b5080fd5b5090346101d357826003193601126101d35782546001600160a01b0316903382900361025657508280808093479082821561024d575bf115610243575080f35b51903d90823e3d90fd5b506108fc610239565b608490602084519162461bcd60e51b8352820152602260248201527f4f6e6c7920746865206f776e65722063616e2077697468647261772066756e64604482015261399760f11b6064820152fd5b5090602090816003193601126105a857803567ffffffffffffffff918282116105a457366023830112156105a45781810135908382116105915785519387601f19946102f78887601f880116018861077f565b848752602494368682840101116101d35780868a9301838a0137870101523415610546578651936103278561074d565b33855286850190348252888601938785526060870195428752600193845468010000000000000000811015610534578086610364920187556106c3565b9990996105235760018060a01b039051166bffffffffffffffffffffffff60a01b8a541617895551848901556002880195519182519586116105125750506103ac8554610713565b601f81116104cc575b508a8992601f8611600114610441575093807f68c6b27d541e53668b87dc95557cffea5229e28877a1c6365eeb6c589df57e169a999794610427999794829460039894610436575b50501b9160001990861b1c19161790555b5191015560608551933485528401526060830190610847565b9242908201528033930390a280f35b0151925038806103fd565b868d528a8d209495949392915084168c5b8181106104b75750926003959285927f68c6b27d541e53668b87dc95557cffea5229e28877a1c6365eeb6c589df57e169c9b99966104279b99961061049f575b505050811b01905561040e565b015160001983881b60f8161c19169055388080610492565b82840151855593860193928b01928b01610452565b858c52898c20601f860160051c8101918b8710610508575b601f0160051c019084905b8281106104fd5750506103b5565b8d81550184906104ef565b90915081906104e4565b634e487b7160e01b8d52604190528bfd5b634e487b7160e01b8e528d8452828efd5b634e487b7160e01b8e5260418452828efd5b5060216084928688519362461bcd60e51b85528401528201527f416d6f756e74206d7573742062652067726561746572207468616e207a65726f6044820152601760f91b6064820152fd5b634e487b7160e01b875260419052602486fd5b8580fd5b8380fd5b509190346101ff5760203660031901126101ff57359060015482101561062657506105d6906106c3565b5080546001820154926001600160a01b039091169161061c90608060036105ff600284016107a1565b920154938051968796875260208701528501526080840190610847565b9060608301520390f35b80fd5b849084346101d35760203660031901126101d3576001600160a01b038135818116939192908490036106bf57845492831633036106725750506001600160a01b03191617815580f35b62461bcd60e51b8252602090820152602360248201527f4f6e6c7920746865206f776e65722063616e207365742061206e6577206f776e60448201526232b91760e91b6064820152608490fd5b8480fd5b6001548110156106fd57600160005260021b7fb10e2d527612073b26eecdfd717e6a320cf44b4afac2b0732d9fcbe2b7fa0cf60190600090565b634e487b7160e01b600052603260045260246000fd5b90600182811c92168015610743575b602083101461072d57565b634e487b7160e01b600052602260045260246000fd5b91607f1691610722565b6080810190811067ffffffffffffffff82111761076957604052565b634e487b7160e01b600052604160045260246000fd5b90601f8019910116810190811067ffffffffffffffff82111761076957604052565b90604051918260008254926107b584610713565b90818452600194858116908160001461082457506001146107e1575b50506107df9250038361077f565b565b9093915060005260209081600020936000915b81831061080c5750506107df935082010138806107d1565b855488840185015294850194879450918301916107f4565b9150506107df94506020925060ff191682840152151560051b82010138806107d1565b919082519283825260005b848110610873575050826000602080949584010152601f8019910116010190565b60208183018101518483018201520161085256fea2646970667358221220bcff6ab0f116ca6444af60a3b68185d5161cfca523b6a3366b3cdbbc7c38f40464736f6c63430008140033",
  "devdoc": {
    "kind": "dev",
    "methods": {},
    "version": 1
  },
  "userdoc": {
    "kind": "user",
    "methods": {},
    "version": 1
  },
  "storageLayout": {
    "storage": [
      {
        "astId": 13,
        "contract": "contracts/Coffe.sol:BuyMeCoffee",
        "label": "owner",
        "offset": 0,
        "slot": "0",
        "type": "t_address"
      },
      {
        "astId": 26,
        "contract": "contracts/Coffe.sol:BuyMeCoffee",
        "label": "contributions",
        "offset": 0,
        "slot": "1",
        "type": "t_array(t_struct(Contribution)22_storage)dyn_storage"
      }
    ],
    "types": {
      "t_address": {
        "encoding": "inplace",
        "label": "address",
        "numberOfBytes": "20"
      },
      "t_array(t_struct(Contribution)22_storage)dyn_storage": {
        "base": "t_struct(Contribution)22_storage",
        "encoding": "dynamic_array",
        "label": "struct BuyMeCoffee.Contribution[]",
        "numberOfBytes": "32"
      },
      "t_string_storage": {
        "encoding": "bytes",
        "label": "string",
        "numberOfBytes": "32"
      },
      "t_struct(Contribution)22_storage": {
        "encoding": "inplace",
        "label": "struct BuyMeCoffee.Contribution",
        "members": [
          {
            "astId": 15,
            "contract": "contracts/Coffe.sol:BuyMeCoffee",
            "label": "supporter",
            "offset": 0,
            "slot": "0",
            "type": "t_address"
          },
          {
            "astId": 17,
            "contract": "contracts/Coffe.sol:BuyMeCoffee",
            "label": "amount",
            "offset": 0,
            "slot": "1",
            "type": "t_uint256"
          },
          {
            "astId": 19,
            "contract": "contracts/Coffe.sol:BuyMeCoffee",
            "label": "message",
            "offset": 0,
            "slot": "2",
            "type": "t_string_storage"
          },
          {
            "astId": 21,
            "contract": "contracts/Coffe.sol:BuyMeCoffee",
            "label": "timestamp",
            "offset": 0,
            "slot": "3",
            "type": "t_uint256"
          }
        ],
        "numberOfBytes": "128"
      },
      "t_uint256": {
        "encoding": "inplace",
        "label": "uint256",
        "numberOfBytes": "32"
      }
    }
  }
}