{
  "address": "0x56d522a352204a827100E0b3440621395a703c2B",
  "abi": [
    {
      "inputs": [
        {
          "internalType": "address",
          "name": "_usdcTokenAddress",
          "type": "address"
        }
      ],
      "stateMutability": "nonpayable",
      "type": "constructor"
    },
    {
      "inputs": [
        {
          "internalType": "address",
          "name": "target",
          "type": "address"
        }
      ],
      "name": "AddressEmptyCode",
      "type": "error"
    },
    {
      "inputs": [
        {
          "internalType": "address",
          "name": "account",
          "type": "address"
        }
      ],
      "name": "AddressInsufficientBalance",
      "type": "error"
    },
    {
      "inputs": [
        {
          "internalType": "uint256",
          "name": "timeRemaining",
          "type": "uint256"
        }
      ],
      "name": "ClaimTooSoon",
      "type": "error"
    },
    {
      "inputs": [],
      "name": "FailedInnerCall",
      "type": "error"
    },
    {
      "inputs": [
        {
          "internalType": "uint256",
          "name": "faucetBalance",
          "type": "uint256"
        },
        {
          "internalType": "uint256",
          "name": "requestedAmount",
          "type": "uint256"
        }
      ],
      "name": "InsufficientFaucetBalance",
      "type": "error"
    },
    {
      "inputs": [
        {
          "internalType": "address",
          "name": "token",
          "type": "address"
        }
      ],
      "name": "SafeERC20FailedOperation",
      "type": "error"
    },
    {
      "inputs": [],
      "name": "ZeroAddress",
      "type": "error"
    },
    {
      "anonymous": false,
      "inputs": [
        {
          "indexed": true,
          "internalType": "address",
          "name": "user",
          "type": "address"
        }
      ],
      "name": "TokensClaimed",
      "type": "event"
    },
    {
      "inputs": [],
      "name": "CLAIM_INTERVAL",
      "outputs": [
        {
          "internalType": "uint256",
          "name": "",
          "type": "uint256"
        }
      ],
      "stateMutability": "view",
      "type": "function"
    },
    {
      "inputs": [
        {
          "internalType": "address",
          "name": "_to",
          "type": "address"
        }
      ],
      "name": "drip",
      "outputs": [],
      "stateMutability": "nonpayable",
      "type": "function"
    },
    {
      "inputs": [
        {
          "internalType": "address",
          "name": "_user",
          "type": "address"
        }
      ],
      "name": "getNextClaimTime",
      "outputs": [
        {
          "internalType": "uint256",
          "name": "",
          "type": "uint256"
        }
      ],
      "stateMutability": "view",
      "type": "function"
    },
    {
      "inputs": [
        {
          "internalType": "address",
          "name": "",
          "type": "address"
        }
      ],
      "name": "lastClaimTime",
      "outputs": [
        {
          "internalType": "uint256",
          "name": "",
          "type": "uint256"
        }
      ],
      "stateMutability": "view",
      "type": "function"
    },
    {
      "inputs": [],
      "name": "usdcClaimAmount",
      "outputs": [
        {
          "internalType": "uint256",
          "name": "",
          "type": "uint256"
        }
      ],
      "stateMutability": "view",
      "type": "function"
    },
    {
      "inputs": [],
      "name": "usdcToken",
      "outputs": [
        {
          "internalType": "contract IERC20",
          "name": "",
          "type": "address"
        }
      ],
      "stateMutability": "view",
      "type": "function"
    },
    {
      "inputs": [
        {
          "internalType": "address",
          "name": "_to",
          "type": "address"
        },
        {
          "internalType": "address",
          "name": "_token",
          "type": "address"
        }
      ],
      "name": "withdrawRemainingTokens",
      "outputs": [],
      "stateMutability": "nonpayable",
      "type": "function"
    }
  ],
  "transactionHash": "0xb2bc3d46c9172e5579709fdfd9e908f0ffc308db569f877a4637a9d02cfb76f5",
  "args": [
    "0xf2A558c41e9A5505d2E5614a4AAb85f397816d00"
  ],
  "numDeployments": 1,
  "solcInputHash": "59364b0673da4202ec665adbb0e52d42",
  "bytecode": "0x60803461009c57601f61060838819003918201601f19168301916001600160401b038311848410176100a15780849260209460405283398101031261009c57516001600160a01b0381169081900361009c576301c9c380600155801561008a5760018060a01b0319908160005416176000553390600254161760025560405161055090816100b88239f35b60405163d92e233d60e01b8152600490fd5b600080fd5b634e487b7160e01b600052604160045260246000fdfe608060408181526004918236101561001657600080fd5b600092833560e01c91826311eac8551461032f5750816349d3a0c11461031157816367a5cd061461021d578163884331ec146101fe57816393c30c0f146101a457816394e326f7146100ac575063b77cf9c61461007257600080fd5b346100a85760203660031901126100a85760209181906001600160a01b03610098610353565b1681526003845220549051908152f35b5080fd5b919050346101a057806003193601126101a0576100c7610353565b6001600160a01b036024358181169081900361019c578160025416330361019c578183161561018c571561017d57845416928251906370a0823160e01b82523090820152602081602481875afa9283156101745750849261013d575b508161012d578380f35b610136926103a6565b3880808380f35b9091506020813d821161016c575b816101586020938361036e565b8101031261016857519038610123565b8380fd5b3d915061014b565b513d86823e3d90fd5b50505163d92e233d60e01b8152fd5b5050505163d92e233d60e01b8152fd5b8580fd5b8280fd5b8383346100a85760203660031901126100a8576001600160a01b036101c7610353565b168252600360205280822054916201518083018093116101eb576020838351908152f35b634e487b7160e01b815260118452602490fd5b5050346100a857816003193601126100a8576020906001549051908152f35b919050346101a05760203660031901126101a057610239610353565b3315610303576001600160a01b0381811680865260036020528386205490949062015180808201918281116102f0578242106102b95750505050906102859185541690600154916103a6565b818352600360205242908320557fb638240958296a5b145c2f18c8ec62f72a20911efab2d38fb48c76695373761f8280a280f35b6024945086918991429003019283116102de575051630854f3dd60e41b815291820152fd5b634e487b7160e01b8152601184528490fd5b634e487b7160e01b895260118452602489fd5b505163d92e233d60e01b8152fd5b5050346100a857816003193601126100a85760209051620151808152f35b8490346100a857816003193601126100a85790546001600160a01b03168152602090f35b600435906001600160a01b038216820361036957565b600080fd5b90601f8019910116810190811067ffffffffffffffff82111761039057604052565b634e487b7160e01b600052604160045260246000fd5b60405163a9059cbb60e01b602082019081526001600160a01b039384166024830152604480830195909552938152929167ffffffffffffffff916080850183811186821017610390576040521692600080938192519082875af13d156104aa573d918211610496579061043b916040519161042b6020601f19601f840116018461036e565b82523d84602084013e5b846104b7565b90815191821515928361046b575b5050506104535750565b60249060405190635274afe760e01b82526004820152fd5b8192935090602091810103126100a85760200151908115918215036104935750388080610449565b80fd5b634e487b7160e01b83526041600452602483fd5b61043b9150606090610435565b906104de57508051156104cc57805190602001fd5b604051630a12f52160e11b8152600490fd5b81511580610511575b6104ef575090565b604051639996b31560e01b81526001600160a01b039091166004820152602490fd5b50803b156104e756fea26469706673582212204bea9b3ae7c443a5760db57f0e7c4da4ef642f5fd61650f7c6c7078162242eb864736f6c63430008140033",
  "devdoc": {
    "details": "A contract for distributing tokens to users at regular intervals.",
    "errors": {
      "AddressEmptyCode(address)": [
        {
          "details": "There's no code at `target` (it is not a contract)."
        }
      ],
      "AddressInsufficientBalance(address)": [
        {
          "details": "The ETH balance of the account is not enough to perform the operation."
        }
      ],
      "FailedInnerCall()": [
        {
          "details": "A call to an address target failed. The target may have reverted."
        }
      ],
      "SafeERC20FailedOperation(address)": [
        {
          "details": "An operation with an ERC20 token failed."
        }
      ]
    },
    "kind": "dev",
    "methods": {
      "constructor": {
        "details": "Initializes the contract, setting the token to be distributed.",
        "params": {
          "_usdcTokenAddress": "The address of the ERC20 token to be distributed."
        }
      },
      "drip(address)": {
        "details": "Allows users to claim tokens. Users can only claim once every CLAIM_INTERVAL."
      },
      "getNextClaimTime(address)": {
        "details": "Returns the timestamp when a user can next claim tokens.",
        "params": {
          "_user": "The address of the user to check."
        },
        "returns": {
          "_0": "The timestamp when the user can next claim tokens."
        }
      },
      "withdrawRemainingTokens(address,address)": {
        "details": "Allows the contract owner to withdraw all remaining tokens from the contract.",
        "params": {
          "_to": "The address to send the remaining tokens to.",
          "_token": "The address of the token to withdraw."
        }
      }
    },
    "title": "Faucet",
    "version": 1
  },
  "userdoc": {
    "kind": "user",
    "methods": {
      "drip(address)": {
        "notice": "This function will revert if:  - The sender is the zero address  - The claim interval has not passed since the last claim  - The faucet doesn't have enough balance to fulfill the claim"
      },
      "withdrawRemainingTokens(address,address)": {
        "notice": "This function will revert if:  - The `to` address is the zero address  - The token transfer fails"
      }
    },
    "version": 1
  },
  "storageLayout": {
    "storage": [
      {
        "astId": 2675,
        "contract": "contracts/Faucet.sol:Faucet",
        "label": "usdcToken",
        "offset": 0,
        "slot": "0",
        "type": "t_contract(IERC20)715"
      },
      {
        "astId": 2682,
        "contract": "contracts/Faucet.sol:Faucet",
        "label": "usdcClaimAmount",
        "offset": 0,
        "slot": "1",
        "type": "t_uint256"
      },
      {
        "astId": 2687,
        "contract": "contracts/Faucet.sol:Faucet",
        "label": "owner",
        "offset": 0,
        "slot": "2",
        "type": "t_address"
      },
      {
        "astId": 2691,
        "contract": "contracts/Faucet.sol:Faucet",
        "label": "lastClaimTime",
        "offset": 0,
        "slot": "3",
        "type": "t_mapping(t_address,t_uint256)"
      }
    ],
    "types": {
      "t_address": {
        "encoding": "inplace",
        "label": "address",
        "numberOfBytes": "20"
      },
      "t_contract(IERC20)715": {
        "encoding": "inplace",
        "label": "contract IERC20",
        "numberOfBytes": "20"
      },
      "t_mapping(t_address,t_uint256)": {
        "encoding": "mapping",
        "key": "t_address",
        "label": "mapping(address => uint256)",
        "numberOfBytes": "32",
        "value": "t_uint256"
      },
      "t_uint256": {
        "encoding": "inplace",
        "label": "uint256",
        "numberOfBytes": "32"
      }
    }
  }
}