{
  "address": "0x6330605C037437270aab6526263595c2297E4B5E",
  "abi": [
    {
      "inputs": [
        {
          "internalType": "address",
          "name": "_parentContract",
          "type": "address"
        },
        {
          "internalType": "address",
          "name": "_usdcToken",
          "type": "address"
        },
        {
          "internalType": "address",
          "name": "_uniswapRouter",
          "type": "address"
        },
        {
          "internalType": "address",
          "name": "_uniswapFactory",
          "type": "address"
        }
      ],
      "stateMutability": "nonpayable",
      "type": "constructor"
    },
    {
      "inputs": [
        {
          "internalType": "address",
          "name": "target",
          "type": "address"
        }
      ],
      "name": "AddressEmptyCode",
      "type": "error"
    },
    {
      "inputs": [
        {
          "internalType": "address",
          "name": "account",
          "type": "address"
        }
      ],
      "name": "AddressInsufficientBalance",
      "type": "error"
    },
    {
      "inputs": [],
      "name": "AddressZeroDetected",
      "type": "error"
    },
    {
      "inputs": [],
      "name": "CampaignDoesNotExist",
      "type": "error"
    },
    {
      "inputs": [],
      "name": "CampaignInactive",
      "type": "error"
    },
    {
      "inputs": [],
      "name": "DeadlineExpired",
      "type": "error"
    },
    {
      "inputs": [],
      "name": "DeadlineTooShort",
      "type": "error"
    },
    {
      "inputs": [],
      "name": "FailedInnerCall",
      "type": "error"
    },
    {
      "inputs": [],
      "name": "FundingAlreadyCompleted",
      "type": "error"
    },
    {
      "inputs": [],
      "name": "FundingNotMet",
      "type": "error"
    },
    {
      "inputs": [],
      "name": "InsufficientFunds",
      "type": "error"
    },
    {
      "inputs": [],
      "name": "InvalidInput",
      "type": "error"
    },
    {
      "inputs": [],
      "name": "InvalidInput",
      "type": "error"
    },
    {
      "inputs": [],
      "name": "InvalidParameters",
      "type": "error"
    },
    {
      "inputs": [],
      "name": "InvalidSupply",
      "type": "error"
    },
    {
      "inputs": [],
      "name": "NotCampaignOwner",
      "type": "error"
    },
    {
      "inputs": [],
      "name": "NotEnoughTokens",
      "type": "error"
    },
    {
      "inputs": [],
      "name": "ReentrancyGuardReentrantCall",
      "type": "error"
    },
    {
      "inputs": [],
      "name": "ReserveRatioOutOfBounds",
      "type": "error"
    },
    {
      "inputs": [
        {
          "internalType": "address",
          "name": "token",
          "type": "address"
        }
      ],
      "name": "SafeERC20FailedOperation",
      "type": "error"
    },
    {
      "inputs": [],
      "name": "Unauthorized",
      "type": "error"
    },
    {
      "inputs": [],
      "name": "UserCannotClaimRefund",
      "type": "error"
    },
    {
      "inputs": [],
      "name": "ZeroValueNotAllowed",
      "type": "error"
    },
    {
      "anonymous": false,
      "inputs": [
        {
          "indexed": true,
          "internalType": "uint256",
          "name": "campaignId",
          "type": "uint256"
        },
        {
          "indexed": true,
          "internalType": "address",
          "name": "creator",
          "type": "address"
        }
      ],
      "name": "CampaignCancelled",
      "type": "event"
    },
    {
      "anonymous": false,
      "inputs": [
        {
          "indexed": true,
          "internalType": "uint256",
          "name": "campaignId",
          "type": "uint256"
        },
        {
          "indexed": true,
          "internalType": "address",
          "name": "investor",
          "type": "address"
        },
        {
          "indexed": false,
          "internalType": "uint256",
          "name": "amount",
          "type": "uint256"
        }
      ],
      "name": "RefundClaimed",
      "type": "event"
    },
    {
      "inputs": [
        {
          "internalType": "uint32",
          "name": "_campaignId",
          "type": "uint32"
        },
        {
          "internalType": "uint256",
          "name": "_tokenAmount",
          "type": "uint256"
        },
        {
          "internalType": "uint256",
          "name": "_usdcAmount",
          "type": "uint256"
        },
        {
          "internalType": "uint256",
          "name": "_minTokenLiquidity",
          "type": "uint256"
        },
        {
          "internalType": "uint256",
          "name": "_minUsdcLiquidity",
          "type": "uint256"
        },
        {
          "internalType": "uint256",
          "name": "_deadline",
          "type": "uint256"
        }
      ],
      "name": "addLiquidityToPool",
      "outputs": [],
      "stateMutability": "nonpayable",
      "type": "function"
    },
    {
      "inputs": [
        {
          "internalType": "uint32",
          "name": "_offset",
          "type": "uint32"
        },
        {
          "internalType": "uint32",
          "name": "_limit",
          "type": "uint32"
        }
      ],
      "name": "getAllCampaignsPaginated",
      "outputs": [
        {
          "components": [
            {
              "internalType": "uint256",
              "name": "id",
              "type": "uint256"
            },
            {
              "internalType": "address",
              "name": "creator",
              "type": "address"
            },
            {
              "internalType": "uint256",
              "name": "targetAmount",
              "type": "uint256"
            },
            {
              "internalType": "uint256",
              "name": "amountRaised",
              "type": "uint256"
            },
            {
              "internalType": "uint256",
              "name": "tokensSold",
              "type": "uint256"
            },
            {
              "internalType": "uint256",
              "name": "totalSupply",
              "type": "uint256"
            },
            {
              "internalType": "uint256",
              "name": "tokensForSale",
              "type": "uint256"
            },
            {
              "internalType": "uint256",
              "name": "creatorAllocation",
              "type": "uint256"
            },
            {
              "internalType": "uint256",
              "name": "liquidityAllocation",
              "type": "uint256"
            },
            {
              "internalType": "uint256",
              "name": "platformFeeTokens",
              "type": "uint256"
            },
            {
              "internalType": "uint256",
              "name": "deadline",
              "type": "uint256"
            },
            {
              "internalType": "address",
              "name": "tokenAddress",
              "type": "address"
            },
            {
              "internalType": "bool",
              "name": "isActive",
              "type": "bool"
            },
            {
              "internalType": "bool",
              "name": "isFundingComplete",
              "type": "bool"
            },
            {
              "internalType": "bool",
              "name": "isCancelled",
              "type": "bool"
            },
            {
              "internalType": "string",
              "name": "name",
              "type": "string"
            },
            {
              "internalType": "string",
              "name": "symbol",
              "type": "string"
            },
            {
              "internalType": "string",
              "name": "description",
              "type": "string"
            },
            {
              "internalType": "uint32",
              "name": "reserveRatio",
              "type": "uint32"
            },
            {
              "internalType": "uint256",
              "name": "blockNumberCreated",
              "type": "uint256"
            },
            {
              "internalType": "uint256",
              "name": "promotionalOgPoints",
              "type": "uint256"
            },
            {
              "internalType": "bool",
              "name": "isPromoted",
              "type": "bool"
            },
            {
              "internalType": "address",
              "name": "uniswapPair",
              "type": "address"
            }
          ],
          "internalType": "struct CampaignInfo[]",
          "name": "campaignsLocal",
          "type": "tuple[]"
        },
        {
          "internalType": "uint32",
          "name": "total",
          "type": "uint32"
        },
        {
          "internalType": "bool",
          "name": "hasMore",
          "type": "bool"
        }
      ],
      "stateMutability": "view",
      "type": "function"
    },
    {
      "inputs": [
        {
          "internalType": "address",
          "name": "_creator",
          "type": "address"
        }
      ],
      "name": "getCampaignsByCreator",
      "outputs": [
        {
          "components": [
            {
              "internalType": "uint256",
              "name": "id",
              "type": "uint256"
            },
            {
              "internalType": "address",
              "name": "creator",
              "type": "address"
            },
            {
              "internalType": "uint256",
              "name": "targetAmount",
              "type": "uint256"
            },
            {
              "internalType": "uint256",
              "name": "amountRaised",
              "type": "uint256"
            },
            {
              "internalType": "uint256",
              "name": "tokensSold",
              "type": "uint256"
            },
            {
              "internalType": "uint256",
              "name": "totalSupply",
              "type": "uint256"
            },
            {
              "internalType": "uint256",
              "name": "tokensForSale",
              "type": "uint256"
            },
            {
              "internalType": "uint256",
              "name": "creatorAllocation",
              "type": "uint256"
            },
            {
              "internalType": "uint256",
              "name": "liquidityAllocation",
              "type": "uint256"
            },
            {
              "internalType": "uint256",
              "name": "platformFeeTokens",
              "type": "uint256"
            },
            {
              "internalType": "uint256",
              "name": "deadline",
              "type": "uint256"
            },
            {
              "internalType": "address",
              "name": "tokenAddress",
              "type": "address"
            },
            {
              "internalType": "bool",
              "name": "isActive",
              "type": "bool"
            },
            {
              "internalType": "bool",
              "name": "isFundingComplete",
              "type": "bool"
            },
            {
              "internalType": "bool",
              "name": "isCancelled",
              "type": "bool"
            },
            {
              "internalType": "string",
              "name": "name",
              "type": "string"
            },
            {
              "internalType": "string",
              "name": "symbol",
              "type": "string"
            },
            {
              "internalType": "string",
              "name": "description",
              "type": "string"
            },
            {
              "internalType": "uint32",
              "name": "reserveRatio",
              "type": "uint32"
            },
            {
              "internalType": "uint256",
              "name": "blockNumberCreated",
              "type": "uint256"
            },
            {
              "internalType": "uint256",
              "name": "promotionalOgPoints",
              "type": "uint256"
            },
            {
              "internalType": "bool",
              "name": "isPromoted",
              "type": "bool"
            },
            {
              "internalType": "address",
              "name": "uniswapPair",
              "type": "address"
            }
          ],
          "internalType": "struct CampaignInfo[]",
          "name": "",
          "type": "tuple[]"
        }
      ],
      "stateMutability": "view",
      "type": "function"
    },
    {
      "inputs": [],
      "name": "getSummaryStats",
      "outputs": [
        {
          "internalType": "uint256",
          "name": "totalCampaigns",
          "type": "uint256"
        },
        {
          "internalType": "uint256",
          "name": "activeCampaigns",
          "type": "uint256"
        },
        {
          "internalType": "uint256",
          "name": "completedCampaigns",
          "type": "uint256"
        },
        {
          "internalType": "uint256",
          "name": "cancelledCampaigns",
          "type": "uint256"
        },
        {
          "internalType": "uint256",
          "name": "expiredCampaigns",
          "type": "uint256"
        },
        {
          "internalType": "uint256",
          "name": "totalFundingRaised",
          "type": "uint256"
        }
      ],
      "stateMutability": "view",
      "type": "function"
    },
    {
      "inputs": [
        {
          "internalType": "uint32",
          "name": "_campaignId",
          "type": "uint32"
        },
        {
          "internalType": "uint256",
          "name": "_tokenAmountIn",
          "type": "uint256"
        }
      ],
      "name": "getSwapAmountOut",
      "outputs": [
        {
          "internalType": "uint256",
          "name": "expectedUsdcOut",
          "type": "uint256"
        }
      ],
      "stateMutability": "view",
      "type": "function"
    },
    {
      "inputs": [
        {
          "internalType": "uint32",
          "name": "_campaignId",
          "type": "uint32"
        },
        {
          "internalType": "uint256",
          "name": "_usdcAmountIn",
          "type": "uint256"
        }
      ],
      "name": "getTokenAmountOut",
      "outputs": [
        {
          "internalType": "uint256",
          "name": "expectedTokenOut",
          "type": "uint256"
        }
      ],
      "stateMutability": "view",
      "type": "function"
    },
    {
      "inputs": [
        {
          "internalType": "address",
          "name": "_user",
          "type": "address"
        }
      ],
      "name": "getUserParticipatedCampaignsWithInvestmentCheck",
      "outputs": [
        {
          "components": [
            {
              "internalType": "uint256",
              "name": "id",
              "type": "uint256"
            },
            {
              "internalType": "address",
              "name": "creator",
              "type": "address"
            },
            {
              "internalType": "uint256",
              "name": "targetAmount",
              "type": "uint256"
            },
            {
              "internalType": "uint256",
              "name": "amountRaised",
              "type": "uint256"
            },
            {
              "internalType": "uint256",
              "name": "tokensSold",
              "type": "uint256"
            },
            {
              "internalType": "uint256",
              "name": "totalSupply",
              "type": "uint256"
            },
            {
              "internalType": "uint256",
              "name": "tokensForSale",
              "type": "uint256"
            },
            {
              "internalType": "uint256",
              "name": "creatorAllocation",
              "type": "uint256"
            },
            {
              "internalType": "uint256",
              "name": "liquidityAllocation",
              "type": "uint256"
            },
            {
              "internalType": "uint256",
              "name": "platformFeeTokens",
              "type": "uint256"
            },
            {
              "internalType": "uint256",
              "name": "deadline",
              "type": "uint256"
            },
            {
              "internalType": "address",
              "name": "tokenAddress",
              "type": "address"
            },
            {
              "internalType": "bool",
              "name": "isActive",
              "type": "bool"
            },
            {
              "internalType": "bool",
              "name": "isFundingComplete",
              "type": "bool"
            },
            {
              "internalType": "bool",
              "name": "isCancelled",
              "type": "bool"
            },
            {
              "internalType": "string",
              "name": "name",
              "type": "string"
            },
            {
              "internalType": "string",
              "name": "symbol",
              "type": "string"
            },
            {
              "internalType": "string",
              "name": "description",
              "type": "string"
            },
            {
              "internalType": "uint32",
              "name": "reserveRatio",
              "type": "uint32"
            },
            {
              "internalType": "uint256",
              "name": "blockNumberCreated",
              "type": "uint256"
            },
            {
              "internalType": "uint256",
              "name": "promotionalOgPoints",
              "type": "uint256"
            },
            {
              "internalType": "bool",
              "name": "isPromoted",
              "type": "bool"
            },
            {
              "internalType": "address",
              "name": "uniswapPair",
              "type": "address"
            }
          ],
          "internalType": "struct CampaignInfo[]",
          "name": "",
          "type": "tuple[]"
        }
      ],
      "stateMutability": "view",
      "type": "function"
    },
    {
      "inputs": [
        {
          "internalType": "address",
          "name": "_user",
          "type": "address"
        }
      ],
      "name": "getUserTotalInvestment",
      "outputs": [
        {
          "internalType": "uint256",
          "name": "totalInvestment",
          "type": "uint256"
        },
        {
          "internalType": "uint32",
          "name": "campaignsParticipated",
          "type": "uint32"
        }
      ],
      "stateMutability": "view",
      "type": "function"
    },
    {
      "inputs": [
        {
          "internalType": "uint32",
          "name": "_campaignId",
          "type": "uint32"
        },
        {
          "internalType": "uint256",
          "name": "_usdcAmount",
          "type": "uint256"
        }
      ],
      "name": "previewPurchase",
      "outputs": [
        {
          "internalType": "uint256",
          "name": "tokensReceived",
          "type": "uint256"
        }
      ],
      "stateMutability": "view",
      "type": "function"
    },
    {
      "inputs": [
        {
          "internalType": "uint32",
          "name": "_campaignId",
          "type": "uint32"
        },
        {
          "internalType": "uint256",
          "name": "_tokenAmount",
          "type": "uint256"
        },
        {
          "internalType": "uint256",
          "name": "_minUsdcOut",
          "type": "uint256"
        },
        {
          "internalType": "uint256",
          "name": "_deadline",
          "type": "uint256"
        }
      ],
      "name": "swapTokenForUsdc",
      "outputs": [],
      "stateMutability": "nonpayable",
      "type": "function"
    },
    {
      "inputs": [
        {
          "internalType": "uint32",
          "name": "_campaignId",
          "type": "uint32"
        },
        {
          "internalType": "uint256",
          "name": "_usdcAmount",
          "type": "uint256"
        },
        {
          "internalType": "uint256",
          "name": "_minTokenOut",
          "type": "uint256"
        },
        {
          "internalType": "uint256",
          "name": "_deadline",
          "type": "uint256"
        }
      ],
      "name": "swapUsdcForToken",
      "outputs": [],
      "stateMutability": "nonpayable",
      "type": "function"
    },
    {
      "inputs": [],
      "name": "uniswapFactory",
      "outputs": [
        {
          "internalType": "contract IUniswapV2Factory",
          "name": "",
          "type": "address"
        }
      ],
      "stateMutability": "view",
      "type": "function"
    },
    {
      "inputs": [],
      "name": "uniswapRouter",
      "outputs": [
        {
          "internalType": "contract IUniswapV2Router",
          "name": "",
          "type": "address"
        }
      ],
      "stateMutability": "view",
      "type": "function"
    },
    {
      "inputs": [],
      "name": "usdcToken",
      "outputs": [
        {
          "internalType": "contract IERC20",
          "name": "",
          "type": "address"
        }
      ],
      "stateMutability": "view",
      "type": "function"
    }
  ],
  "transactionHash": "0xdcad7c7ffaf61c31d1d5b3a8d349574c10cd042cfe7c20edd6f0c3e6ed56559d",
  "args": [
    "0xBb88E6126FdcD4ae6b9e3038a2255D66645AEA7a",
    "0xf2A558c41e9A5505d2E5614a4AAb85f397816d00",
    "0x125933626e9AAadCDe4D776e2fC31d2e715Bc1d3",
    "0xA5f8f44614D6ADAcF924bc3143E0356d9A37A748"
  ],
  "numDeployments": 1,
  "solcInputHash": "50f148701f10ff3011b07be7eaa091fb",
  "bytecode": "0x608034620000cb57601f6200438038819003918201601f19168301916001600160401b03831184841017620000d057808492608094604052833981010312620000cb576200004d81620000e6565b906200005c60208201620000e6565b6200007860606200007060408501620000e6565b9301620000e6565b90600160005560018060a01b03928380928160018060a01b031997168760015416176001551685600254161760025516836003541617600355169060045416176004556040516142849081620000fc8239f35b600080fd5b634e487b7160e01b600052604160045260246000fd5b51906001600160a01b0382168203620000cb5756fe608060408181526004918236101561001657600080fd5b600092833560e01c918262fc206d146114b9575081630bf7d9101461121257816311eac855146111e95781631c1d6af7146111c0578163262b87b714610f63578163383dbe4414610c1b578163735de9f714610bf25781638bdb2afa14610bca5781639e1efff9146105a9578163c9fd20cf146103b0578163d5b8d84a1461017f57508063dab8ad0c14610118578063f04c54d4146100f05763fe40ac92146100be57600080fd5b346100ec57806003193601126100ec576020906100e56100dc611802565b602435906122e1565b9051908152f35b5080fd5b50346100ec57806003193601126100ec576020906100e561010f611802565b60243590612420565b50903461017c578160031936011261017c57610132611802565b916024359263ffffffff92838516850361017c575061016b93610154916120ea565b90929193825195869560608752606087019061167e565b931660208501521515908301520390f35b80fd5b8383346100ec576020918260031936011261017c576001600160a01b0393803585811691908290036103ac576001918683541690855197637274e30d60e01b895287898581865afa9889156103a2578699610367575b50859285805b6102d0575b506101f163ffffffff809516611e63565b99879587805b610215575b8c8c6102118d5192828493845283019061167e565b0390f35b86811687841681116102ca578b5190630be8d88160e21b8252838201528a81602481885afa9081156102c057878f918f89918f809661029b575b5050840151161461026c575b505061026690611e19565b886101f7565b9861028d61029392610266949b8b8416916102878383611b4c565b52611b4c565b50611e19565b97908d61025b565b6102b89296503d8091833e6102b081836118b1565b810190611966565b93388f61024f565b8c513d8d823e3d90fd5b506101fc565b63ffffffff808216908c16811161036157895190630be8d88160e21b8252878201528881602481865afa90811561035757848c8a949388938d9161033d575b5001511614610328575b61032290611e19565b906101db565b9461033561032291611e19565b959050610319565b61035191503d808f833e6102b081836118b1565b3861030f565b8a513d8b823e3d90fd5b506101e0565b9098508781813d831161039b575b61037f81836118b1565b8101031261039757610390906118d3565b97896101d5565b8580fd5b503d610375565b87513d88823e3d90fd5b8280fd5b9050346103ac57826003193601126103ac57600180548351637274e30d60e01b81528594859485948594859485936001600160a01b03909216916020828281865afa91821561059f578c92610560575b5063ffffffff9182169b93928392909190835b610440575b50505050505060c09750815196875260208701528501526060840152608083015260a0820152f35b9091939a988d93959c99828d169e8f11610557578d9e899e9d9e5190630be8d88160e21b8252858201528d816024818a5afa9d8e1561054c57809e610527575b505060608d015161049091611f61565b6101c08d0151909c90156104c657506104b46104ae6104ba92611f6e565b9a611f6e565b9c611e19565b93919085939d95610413565b6101a0810151919a9991156104eb57506104b46104e56104ba92611f6e565b99611f6e565b6101400151989a9098421115610510576104b461050a6104ba92611f6e565b9b611f6e565b99956104b46105216104ba92611f6e565b97611f6e565b60609e506104909291610543913d8091833e6102b081836118b1565b9d50908f610480565b8a51903d90823e3d90fd5b9b50989b610418565b9091506020813d8211610597575b8161057b602093836118b1565b810103126105935761058c906118d3565b9038610400565b8b80fd5b3d915061056e565b86513d8e823e3d90fd5b919050346103ac5760c03660031901126103ac576105c5611802565b906024938435906044359160a4356105db611db5565b6001548551637274e30d60e01b81526020976001600160a01b03959286169189818c81865afa9081156109f1578491610b95575b5063ffffffff809216918215918215610b89575b5050610b795784158015610b71575b610b615742841115610b515782908b8b8a519485938492630be8d88160e21b84528301525afa908115610b47578291610b2d575b506101a081015115610b1d57846102c08201511615610b0d57610160015186516370a0823160e01b808252338b83015291861693919089818d81885afa9081156109f1579086918591610adc575b5010610acc578560025416908851908152338b82015289818d81855afa9081156109f1579088918591610a9b575b5010610a8b578751636eb1769f60e11b80825233828d019081523060208201529091908b90829081906040010381895afa908115610a81579087918691610a4c575b5010610a3c57885190815233818c0190815230602082015290918a918391908290819060400103915afa908115610975579087918491610a0b575b50106109fb5761077184303386611c50565b6107818630338860025416611c50565b600354875163095ea7b360e01b8082529187166001600160a01b03168b8201908152602081018790528a9082908190604001038187895af19081156109f15784916109b8575b501561097f5760025460035489519283526001600160a01b03908816168b8301908152602081018990528a91839182900360400190829087908b165af1908115610975578391610940575b5015610908576060836101048b858e958a60035416908d8c600254169051988997889662e8e33760e81b88528701528501528a60448501528c6064850152606435608485015260843560a48501523360c485015260e48401525af190816108dd575b506108d6575092606497949261089261089d93601798963390611dd8565b339060025416611dd8565b5162461bcd60e51b8152938401528201527f4661696c656420746f20616464206c69717569646974790000000000000000006044820152fd5b6001815580f35b606090813d8111610901575b6108f381836118b1565b810103126100ec5738610874565b503d6108e9565b865162461bcd60e51b8152808a018990526013818c0152721554d110c8185c1c1c9bdd994819985a5b1959606a1b6044820152606490fd5b90508881813d831161096e575b61095781836118b1565b810103126103ac57610968906118f8565b38610812565b503d61094d565b88513d85823e3d90fd5b875162461bcd60e51b8152808b018a90526014818d015273151bdad95b88185c1c1c9bdd994819985a5b195960621b6044820152606490fd5b90508981813d83116109ea575b6109cf81836118b1565b810103126109e6576109e0906118f8565b386107c7565b8380fd5b503d6109c5565b89513d86823e3d90fd5b865163356680b760e01b81528990fd5b8092508a8092503d8311610a35575b610a2481836118b1565b810103126103ac578690513861075f565b503d610a1a565b885163356680b760e01b81528b90fd5b8092508c8092503d8311610a7a575b610a6581836118b1565b81010312610a765786905138610724565b8480fd5b503d610a5b565b8a513d87823e3d90fd5b875163356680b760e01b81528a90fd5b8092508b8092503d8311610ac5575b610ab481836118b1565b810103126109e657879051386106e2565b503d610aaa565b87516308aeed0f60e21b81528a90fd5b8092508b8092503d8311610b06575b610af581836118b1565b810103126109e657859051386106b4565b503d610aeb565b8651630e52390960e41b81528990fd5b865163605d489960e01b81528990fd5b610b4191503d8084833e6102b081836118b1565b38610666565b87513d84823e3d90fd5b8751631ab7da6b60e01b81528a90fd5b875163273e150360e21b81528a90fd5b508615610632565b8751639b35ed3b60e01b81528a90fd5b16821190503880610623565b90508981813d8311610bc3575b610bac81836118b1565b810103126109e657610bbd906118d3565b3861060f565b503d610ba2565b9050346103ac57826003193601126103ac575490516001600160a01b03909116815260209150f35b5050346100ec57816003193601126100ec5760035490516001600160a01b039091168152602090f35b839150346100ec57610c2c3661181a565b90610c3996939296611db5565b6001548451637274e30d60e01b81526001600160a01b039860209590928a169186818a81865afa908115610f59578a91610f20575b5063ffffffff809216918215918215610f14575b5050610f04578215610ef45742851115610ee45788906024885180948193630be8d88160e21b83528c8301525afa908115610eda578891610ec0575b506101a081015115610eb057886102c08201511615610ea057610160015185516370a0823160e01b81523388820152908916989085816024818d5afa908115610e96579083918a91610e61575b5010610e51578798610d238399979899303384611c50565b600354885163095ea7b360e01b81529083166001600160a01b03168a82019081526020810185905287908290819060400103818b865af18015610e4757908894939291610e05575b5090610dc19189805198610d7e8a611878565b60028a5236908a0137610d9088611b19565b528060025416610d9f88611b3c565b5260035416948851998a97889687956338ed173960e01b875233938701611c17565b03925af1908115610dfc5750610dda575b506001815580f35b610df5903d8084833e610ded81836118b1565b810190611b60565b5081610dd2565b513d84823e3d90fd5b919093508682813d8311610e40575b610e1e81836118b1565b81010312610e3c578793610e34610dc1936118f8565b509091610d6b565b8780fd5b503d610e14565b89513d8a823e3d90fd5b85516308aeed0f60e21b81528790fd5b809250878092503d8311610e8f575b610e7a81836118b1565b81010312610e8b578290518b610d0b565b8880fd5b503d610e70565b87513d8b823e3d90fd5b8551630e52390960e41b81528790fd5b855163605d489960e01b81528790fd5b610ed491503d808a833e6102b081836118b1565b89610cbe565b86513d8a823e3d90fd5b8651631ab7da6b60e01b81528890fd5b865163273e150360e21b81528890fd5b8651639b35ed3b60e01b81528890fd5b16821190508b80610c82565b90508681813d8311610f52575b610f3781836118b1565b81010312610f4e57610f48906118d3565b8b610c6e565b8980fd5b503d610f2d565b88513d8c823e3d90fd5b839150346100ec57610f743661181a565b90610f8196939296611db5565b6001548451637274e30d60e01b81526020946001600160a01b039283169186818a81865afa908115610f59578a9161118b575b5063ffffffff80921691821591821561117f575b5050610f04578915610ef45742851115610ee45788906024885180948193630be8d88160e21b83528c8301525afa908115610eda578891611165575b506101a081015115610eb057816102c08201511615610ea05761016082910151169781600254169186516370a0823160e01b815233898201528681602481875afa908115610f59579083918b91611134575b501061112457889961106e839a98999a303387611c50565b600354895163095ea7b360e01b81529083166001600160a01b03168b82019081526020810185905288908290819060400103818c895af18015610357579089949392916110e6575b50610dc19293948a8051996110ca8b611878565b60028b5236908b01376110dc89611b19565b52610d9f88611b3c565b9293508783813d831161111d575b6110fe81836118b1565b81010312610e8b578894611114610dc1946118f8565b509493926110b6565b503d6110f4565b86516308aeed0f60e21b81528890fd5b809250888092503d831161115e575b61114d81836118b1565b81010312610f4e578290518c611056565b503d611143565b61117991503d808a833e6102b081836118b1565b89611004565b16821190508b80610fc8565b90508681813d83116111b9575b6111a281836118b1565b81010312610f4e576111b3906118d3565b8b610fb4565b503d611198565b5050346100ec57806003193601126100ec576020906100e56111e0611802565b60243590611f7d565b5050346100ec57816003193601126100ec5760025490516001600160a01b039091168152602090f35b8383346100ec576020918260031936011261017c576001600160a01b03843581811681036103ac57600180548551637274e30d60e01b815291931686828981845afa9182156114af578592611478575b5084918480805b6113c5575b505061128063ffffffff809416611e63565b98869486805b61129d575b89518b815280610211818e018f61167e565b85811686851681116113bf578a5163046ebbcb60e41b815263ffffffff83168582019081526001600160a01b03851660208201528d9081908390819060400103818b5afa9182918d93611390575b50506113025750506112fc90611e19565b87611286565b6001600160801b031661131a575b506112fc90611e19565b8a9791975190630be8d88160e21b8252848201528981602481895afa908115611386579161028d611362928f6112fc958e8093611369575b50508a8416916102878383611b4c565b9690611310565b61137e9293503d8091833e6102b081836118b1565b90388e611352565b8b513d8c823e3d90fd5b6113b0929350803d106113b8575b6113a881836118b1565b810190611e44565b908f8e6112eb565b503d61139e565b5061128b565b63ffffffff8084169082161161147357885163046ebbcb60e41b815263ffffffff8216818d019081526001600160a01b03881660208201528b90829081906040010381885afa899181611454575b50611428575061142290611e19565b81611269565b6001600160801b031661143f575b61142290611e19565b9361144c61142291611e19565b949050611436565b61146c9192508c8d3d106113b8576113a881836118b1565b908d611413565b61126e565b9091508681813d83116114a8575b61149081836118b1565b81010312610a76576114a1906118d3565b9088611262565b503d611486565b86513d87823e3d90fd5b848492346100ec576020918260031936011261017c576001600160a01b038235818116939192918482036103ac57829683951561162a5750600193845416908851637274e30d60e01b815287818381865afa908115610a815785916115f5575b5085805b611536575b8a518a815263ffffffff8916818b01528b90f35b63ffffffff808316908216116115f0578a5163046ebbcb60e41b815263ffffffff82168482019081526001600160a01b03871660208201528a90829081906040010381885afa8791816115d1575b50611599575061159390611e19565b8661151d565b6001600160801b0316806115b2575b5061159390611e19565b6115c46115ca91611593939a9c611f61565b9a611e19565b97906115a8565b6115e99192508b3d8d116113b8576113a881836118b1565b908d611584565b611522565b90508781813d8311611623575b61160c81836118b1565b81010312610a765761161d906118d3565b8a611519565b503d611602565b63287170f960e01b8152fd5b60005b8381106116495750506000910152565b8181015183820152602001611639565b9060209161167281518092818552858086019101611636565b601f01601f1916010190565b908082519081815260208091019281808460051b8301019501936000915b8483106116ac5750505050505090565b9091929394958480600192601f1985820301865289519081518152848060a01b03918284820151168483015260408082015190830152606080820151908301526080808201519083015260a0808201519083015260c0808201519083015260e0808201519083015261010080820151908301526101208082015190830152610140808201519083015261016083818301511690830152610180808201511515908301526101a0808201511515908301526101c0808201511515908301526117b261179e61178a6101e080850151906102e08091880152860190611659565b610200808501519086830390870152611659565b610220808401519085830390860152611659565b9261024063ffffffff818401511690840152610260808301519084015261028080830151908401526102a0808301511515908401526102c08092015116910152980193019301919493929061169c565b6004359063ffffffff8216820361181557565b600080fd5b60809060031901126118155760043563ffffffff811681036118155790602435906044359060643590565b6102e0810190811067ffffffffffffffff82111761186257604052565b634e487b7160e01b600052604160045260246000fd5b6060810190811067ffffffffffffffff82111761186257604052565b611000810190811067ffffffffffffffff82111761186257604052565b90601f8019910116810190811067ffffffffffffffff82111761186257604052565b519063ffffffff8216820361181557565b51906001600160a01b038216820361181557565b5190811515820361181557565b67ffffffffffffffff811161186257601f01601f191660200190565b81601f8201121561181557805161193781611905565b9261194560405194856118b1565b81845260208284010111611815576119639160208085019101611636565b90565b9060208282031261181557815167ffffffffffffffff928382116118155701906102e082820312611815576040519261199e84611845565b825184526119ae602084016118e4565b602085015260408301516040850152606083015160608501526080830151608085015260a083015160a085015260c083015160c085015260e083015160e0850152610100808401519085015261012080840151908501526101408084015190850152610160611a1e8185016118e4565b90850152610180611a308185016118f8565b908501526101a0611a428185016118f8565b908501526101c0611a548185016118f8565b908501526101e0808401518281116118155783611a72918601611921565b90850152610200808401518281116118155783611a90918601611921565b90850152610220918284015191821161181557611aae918401611921565b90830152610240611ac08183016118d3565b90830152610260808201519083015261028080820151908301526102a0611ae88183016118f8565b90830152611afa6102c08092016118e4565b9082015290565b67ffffffffffffffff81116118625760051b60200190565b805115611b265760200190565b634e487b7160e01b600052603260045260246000fd5b805160011015611b265760400190565b8051821015611b265760209160051b010190565b60209081818403126118155780519067ffffffffffffffff821161181557019180601f84011215611815578251611b9681611b01565b93611ba460405195866118b1565b818552838086019260051b820101928311611815578301905b828210611bcb575050505090565b81518152908301908301611bbd565b90815180825260208080930193019160005b828110611bfa575050505090565b83516001600160a01b031685529381019392810192600101611bec565b9192608093611c3c92979695978452602084015260a0604084015260a0830190611bda565b6001600160a01b0390951660608201520152565b6040516323b872dd60e01b60208201526001600160a01b03928316602482015292909116604483015260648083019390935291815260a081019181831067ffffffffffffffff84111761186257611ca992604052611cab565b565b60018060a01b031690611cf5600080836020829551910182875af13d15611d4a573d90611cd782611905565b91611ce560405193846118b1565b82523d84602084013e5b84611d52565b8051918215159283611d24575b505050611d0c5750565b60249060405190635274afe760e01b82526004820152fd5b82935091602091928101031261017c57506020611d4191016118f8565b15388080611d02565b606090611cef565b90611d795750805115611d6757805190602001fd5b604051630a12f52160e11b8152600490fd5b81511580611dac575b611d8a575090565b604051639996b31560e01b81526001600160a01b039091166004820152602490fd5b50803b15611d82565b600260005414611dc6576002600055565b604051633ee5aeb560e01b8152600490fd5b60405163a9059cbb60e01b60208201526001600160a01b03929092166024830152604480830193909352918152611ca991611e146064836118b1565b611cab565b63ffffffff809116908114611e2e5760010190565b634e487b7160e01b600052601160045260246000fd5b9081602091031261181557516001600160801b03811681036118155790565b90611e6d82611b01565b604090611e7c825191826118b1565b8381528093611e8d601f1991611b01565b019160005b838110611e9f5750505050565b6020908251611ead81611845565b6000815282600081830152600085830152606060008184015260006080840152600060a0840152600060c0840152600060e08401526000610100840152600061012084015260006101408401526000610160840152600061018084015260006101a084015260006101c0840152806101e08401528061020084015261022083015260006102408301526000610260830152600061028083015260006102a083015260006102c0830152828601015201611e92565b91908201809211611e2e57565b6000198114611e2e5760010190565b600154604051637274e30d60e01b81526001600160a01b03909116929190602081600481875afa90811561206f57600091612099575b5063ffffffff8092169082821591821561208d575b505061207b57600090602460405180968193630be8d88160e21b835260048301525afa92831561206f57600093612054575b50610180830151158015612046575b8015612038575b612030578260c06119639401519161024060608301519201511691612514565b505050600090565b506101c08301511515612010565b506101a08301511515612009565b61206891933d8091833e6102b081836118b1565b9138611ffa565b6040513d6000823e3d90fd5b60405163b4fa3fb360e01b8152600490fd5b16821190508238611fc8565b906020823d82116120ca575b816120b2602093836118b1565b8101031261017c57506120c4906118d3565b38611fb3565b3d91506120a5565b91909163ffffffff80809416911601918211611e2e57565b909163ffffffff9283811693841580156122d7575b61207b576001805460408051637274e30d60e01b81526001600160a01b03909216969194909260049160208784818c5afa9687156122cc57600097612291575b508699868816978786169089821015612247575088039087821161222457818816111561223f5750935b8585169261217684611e63565b996000845b612198575b50505050505090612190916120d2565b161091929190565b8881168681101561223957858a6121af848b6120d2565b16018a8111612224578551630be8d88160e21b8152908b1685820152600081602481875afa908115612219576121fa928f89959361028d93600091612200575b506102878383611b4c565b9061217b565b612213913d8091833e6102b081836118b1565b386121ef565b86513d6000823e3d90fd5b601185634e487b7160e01b6000525260246000fd5b50612180565b905093612169565b9b505050505093505092935050815191602083019183831067ffffffffffffffff84111761227c575052600081529190600090565b604190634e487b7160e01b6000525260246000fd5b90966020823d82116122c4575b816122ab602093836118b1565b8101031261017c57506122bd906118d3565b953861213f565b3d915061229e565b85513d6000823e3d90fd5b50603285116120ff565b60015460408051630be8d88160e21b815263ffffffff90931660048401526000936001600160a01b03939290919085908490602490829088165afa92831561241657908593929184936123fa575b50846102c0840151161580156123f2575b6123ea57846123ab9561016083519561235887611878565b600287528436602089013701511661236f85611b19565b52806002541661237e85611b3c565b52600354169181519586948593849363d06ca61f60e01b8552600485015260248401526044830190611bda565b03915afa8291816123ce575b506123c0575090565b6123ca9150611b3c565b5190565b6123e39192503d8085833e610ded81836118b1565b90386123b7565b505050505090565b508115612340565b61240f9193503d8086833e6102b081836118b1565b913861232f565b81513d87823e3d90fd5b60015460408051630be8d88160e21b815263ffffffff90931660048401526000936001600160a01b03939290919085908490602490829088165afa92831561241657908593929184936124c5575b50846102c0840151161580156124bd575b6123ea57846123ab9561016083519561249787611878565b600287528436602089013782600254166124b088611b19565b5201511661237e85611b3c565b50811561247f565b6124da9193503d8086833e6102b081836118b1565b913861246e565b81810292918115918404141715611e2e57565b81156124fe570490565b634e487b7160e01b600052601260045260246000fd5b928015612619578315158061260a575b806125f7575b156125b357811561259b57620f424063ffffffff84161461258757612566928261255960ff9461255e94611f61565b612622565b9290846124e1565b91161c9060008183111561258157508103908111611e2e5790565b91505090565b612596919250611963936124e1565b6124f4565b9250505064e8d4a5100080820291820403611e2e5790565b606460405162461bcd60e51b815260206004820152602060248201527f496e76616c696420626f6e64696e6720637572766520706172616d65746572736044820152fd5b50620f424063ffffffff8416111561252a565b5063ffffffff83161515612524565b50505050600090565b909291600160811b90818310156137e5578483106137a0576000607f9584871b6001607f1b95808204871490151715613740579061265f916124f4565b9070015bf0a8b1457695355fb8ac404e7a79e38210156135c4575080916000916fd3094c70f034de4b96ff7d5b6f99fcd8808210156135a0575b50506fa45af1e1f40c333b3de1db4dd55f29a780841015613575575b506f910b022db7ae67ce76b441c27035c6a18084101561354a575b506f88415abbe9a76bead8d00cf112e4d4a88084101561351f575b506f84102b00893f64c705e841d5d4064bd3808410156134f4575b506f8204055aaef1c8bd5c3259f4822735a2808410156134c9575b506f810100ab00222d861931c15e39b44e998084101561349e575b506f808040155aabbbe9451521693554f73380841015613473575b506f7fffffffffffffffffffffffffffffff198301838111611e2e5761277d81806124e1565b881c92600160801b858103880191908211611e2e576127ad85916127a46127b394866124e1565b60801c90611f61565b926124e1565b881c906faaaaaaaaaaaaaaaaaaaaaaaaaaaaaaaa908786830301918211611e2e576127ad85916127e66127ef94866124e1565b60811c90611f61565b881c906f99999999999999999999999999999999908786830301918211611e2e576127ad859161282f93612828600360801b91876124e1565b0490611f61565b881c906f92492492492492492492492492492492908786830301918211611e2e576127ad859161286261286b94866124e1565b60821c90611f61565b881c906f8e38e38e38e38e38e38e38e38e38e38e908786830301918211611e2e576127ad85916128a493612828600560801b91876124e1565b881c906f8ba2e8ba2e8ba2e8ba2e8ba2e8ba2e8b908786830301918211611e2e576127ad85916128dd93612828600360811b91876124e1565b881c926f89d89d89d89d89d89d89d89d89d89d898786820301908111611e2e5761291b9261291591600760801b9061282890886124e1565b936124e1565b871c856f8888888888888888888888888888888894850301938411611e2e5761295d61296693612954620f42409663ffffffff946124e1565b60831c90611f61565b915b16906124e1565b0490600160831b821015612ec9576000926f0fffffffffffffffffffffffffffffff831661299481806124e1565b871c6710e1b3be415a000090818102918183041481151715612ea157826129ba916124e1565b881c906705a0913f6b1e000090818302918383041483151715612eb5576127ad6129e5928592611f61565b881c90670168244fdac7800090818302918383041483151715612eb5576127ad612a10928592611f61565b881c90664807432bc1800090818302918383041483151715612eb5576127ad612a3a928592611f61565b881c90660c0135dca0400090818302918383041483151715612eb5576127ad612a64928592611f61565b881c906601b707b1cdc00090818302918383041483151715612eb5576127ad612a8e928592611f61565b881c906536e0f639b80090818302918383041483151715612eb5576127ad612ab7928592611f61565b881c90650618fee9f80090818302918383041483151715612eb5576127ad612ae0928592611f61565b881c90649c197dcc0090818302918383041483151715612eb5576127ad612b08928592611f61565b881c90640e30dce40090818302918383041483151715612eb5576127ad612b30928592611f61565b881c9064012ebd130090818302918383041483151715612eb5576127ad612b58928592611f61565b881c906317499f0090818302918383041483151715612eb5576127ad612b7f928592611f61565b881c906301a9d48090818302918383041483151715612eb5576127ad612ba6928592611f61565b881c90621c638090818302918383041483151715612eb5576127ad612bcc928592611f61565b881c906201c63890818302918383041483151715612eb5576127ad612bf2928592611f61565b881c90611ab890818302918383041483151715612eb5576127ad612c17928592611f61565b881c9061017c90818302918383041483151715612eb5576127ad612c3c928592611f61565b881c90601482029082820460141483151715612eb5576127ad612c60928592611f61565b881c9081800460011482151715612ea157612c88612c8e93926721c3677c82b4000092611f61565b04611f61565b93818501809511612e8d5750836001607c1b8416612e4c575b506001607d1b8316612e0e575b6001607e1b8316612dd1575b8216612d95575b600160801b8216612d59575b8116612d1e575b600160821b16612ce8579190565b6e2bf84208204f5977f9a8cf01fdc30790818102918183041490151715611e2e576d03c6ab775dd0b95b4cbee7e65d1190049190565b906f0960aadc109e7a3bf4578099615711d790818102918183041490151715611e2e576e2bf84208204f5977f9a8cf01fdce3d900490612cda565b916f454aaa8efe072e7f6ddbab84b40a55c590818102918183041490151715611e2e576f0960aadc109e7a3bf4578099615711ea900491612cd3565b916fbc5ab1b16779be3575bd8f0520a9f21e90818102918183041490151715611e2e576f454aaa8efe072e7f6ddbab84b40a55c9900491612cc7565b927001368b2fc6f9609fe7aceb46aa619baed590818102918183041490151715611e2e576fbc5ab1b16779be3575bd8f0520a9f21f900492612cc0565b9270018ebef9eac820ae8682b9793ac6d1e77890818102918183041490151715611e2e577001368b2fc6f9609fe7aceb46aa619baed4900492612cb4565b9093507001c3d6a24ed82218787d624d3e5eba95f990818102918183041490151715611e2e5770018ebef9eac820ae8682b9793ac6d1e77690049238612ca7565b634e487b7160e01b81526011600452602490fd5b634e487b7160e01b87526011600452602487fd5b634e487b7160e01b88526011600452602488fd5b50929050612ed68361384d565b9260ff841680920360ff8111611e2e5760ff161c90612ef582806124e1565b811c6f03442c4e6074a82f1797f72ac000000090818102918183041481151715611e2e5783612f23916124e1565b821c906f0116b96f757c380fb287fd0e40000000808302908382041483151715611e2e576127ad8591612f5593611f61565b821c906e45ae5bdd5f0e03eca1ff4390000000808302908382041483151715611e2e576127ad8591612f8693611f61565b821c906e0defabf91302cd95b9ffda50000000808302908382041483151715611e2e576127ad8591612fb793611f61565b821c906e02529ca9832b22439efff9b8000000808302908382041483151715611e2e576127ad8591612fe893611f61565b821c906d54f1cf12bd04e516b6da88000000808302908382041483151715611e2e576127ad859161301893611f61565b821c906d0a9e39e257a09ca2d6db51000000808302908382041483151715611e2e576127ad859161304893611f61565b821c906d012e066e7b839fa050c309000000808302908382041483151715611e2e576127ad859161307893611f61565b821c906c1e33d7d926c329a1ad1a800000808302908382041483151715611e2e576127ad85916130a793611f61565b821c906c02bee513bdb4a6b19b5f800000808302908382041483151715611e2e576127ad85916130d693611f61565b821c906b3a9316fa79b88eccf2a00000808302908382041483151715611e2e576127ad859161310493611f61565b821c906b048177ebe1fa812375200000808302908382041483151715611e2e576127ad859161313293611f61565b821c906a5263fe90242dcbacf00000808302908382041483151715611e2e576127ad859161315f93611f61565b821c906a057e22099c030d94100000808302908382041483151715611e2e576127ad859161318c93611f61565b821c906957e22099c030d9410000808302908382041483151715611e2e576127ad85916131b893611f61565b821c9069052b6b54569976310000808302908382041483151715611e2e576127ad85916131e493611f61565b821c90684985f67696bf748000808302908382041483151715611e2e576127ad859161320f93611f61565b821c906803dea12ea99e498000808302908382041483151715611e2e576127ad859161323a93611f61565b821c906731880f2214b6e000808302908382041483151715611e2e576127ad859161326493611f61565b821c9067025bcff56eb36000808302908382041483151715611e2e576127ad859161328e93611f61565b821c90661b722e10ab1000808302908382041483151715611e2e576127ad85916132b793611f61565b821c906601317c70077000808302908382041483151715611e2e576127ad85916132e093611f61565b821c90650cba84aafa00808302908382041483151715611e2e576127ad859161330893611f61565b821c906482573a0a00808302908382041483151715611e2e576127ad859161332f93611f61565b821c906405035ad900808302908382041483151715611e2e576127ad859161335693611f61565b821c90632f881b00808302908382041483151715611e2e576127ad859161337c93611f61565b821c906301b29340808302908382041483151715611e2e576127ad85916133a293611f61565b821c90620efc40808302908382041483151715611e2e576127ad85916133c793611f61565b821c90617fe0808302908382041483151715611e2e576127ad85916133eb93611f61565b821c90610420808302908382041483151715611e2e576127ad859161340f93611f61565b821c906021820282810460211483151715611e2e576127ad859161343293611f61565b821c9081800460011482151715611e2e5761346f936f0688589cc0e9505e2f2fee5580000000612c8860019461346794611f61565b911b90611f61565b9190565b909291600160771b8101908110611e2e579180881b90808204871490151715611e2e57049138612757565b909291600160781b8101908110611e2e579180881b90808204871490151715611e2e5704913861273c565b909291600160791b8101908110611e2e579180881b90808204871490151715611e2e57049138612721565b9092916001607a1b8101908110611e2e579180881b90808204871490151715611e2e57049138612706565b9092916001607b1b8101908110611e2e579180881b90808204871490151715611e2e570491386126eb565b9092916001607c1b8101908110611e2e579180881b90808204871490151715611e2e570491386126d0565b9092916001607d1b8101908110611e2e579180881b90808204871490151715611e2e570491386126b5565b9193506001607e1b925080881b90801590820487141715611e2e5704913880612699565b908190600160801b9080828110156136d7575b5086811161362b575b50506f03f80fe03f80fe03f80fe03f80fe03f891828102928184041490151715612e8d5750620f42409163ffffffff6f05b9de1d10bf4103d647b0955897ba8061296693049161295f565b909197929596835b60ff928382169081156136c6578061364a916124e1565b9384871c9486861015613681575b50505060ff16801561366d5760001901613633565b634e487b7160e01b8a52601160045260248afd5b929960809390931c945090600019018181116136b2579160016136a99260ff94161b90611f61565b97903880613658565b634e487b7160e01b8c52601160045260248cfd5b5050509695929791505038806135e0565b959296935050959284881c95809761010088106000146137545797965b60018082111561370f571c966137099061382a565b966136f4565b50509194969093969592955b60ff841690811c93891b60ff607f1b16908015908204881417156137405792386135d7565b634e487b7160e01b83526011600452602483fd5b96949795939291908960805b60ff81168015613790576001811b891015613782575b5060011c168a90613760565b978199981c97179738613776565b505050929691959390945061371b565b60405162461bcd60e51b815260206004820152601c60248201527f4261736573203c203120617265206e6f7420737570706f727465642e000000006044820152606490fd5b60405162461bcd60e51b815260206004820152601860248201527f626173654e2065786365656473206d61782076616c75652e00000000000000006044820152606490fd5b60ff60019116019060ff8211611e2e57565b906080811015611b265760051b0190565b906020607f9182915b61385f8161382a565b60ff80918186169182911610156138bc57818316019081116138a75760011c841690856138938361388e613937565b61383c565b511061389f5750613856565b925091613856565b60246000634e487b7160e01b81526011600452fd5b505092509290816138d86138ce613937565b60ff84169061383c565b51101561258157506138eb6138ce613937565b5110156119635760405162461bcd60e51b815260206004820152601e60248201527f56616c7565206e6f7420666f756e6420696e206d6178457870417272617900006044820152606490fd5b60405161394381611894565b61100080913690376040519061395882611894565b368237701c35fedd14ffffffffffffffffffffffff610400820152701b0ce43b323fffffffffffffffffffffff6104208201527019f0028ec1ffffffffffffffffffffffff6104408201527018ded91f0e7fffffffffffffffffffffff6104608201527017d8ec7f0417ffffffffffffffffffffff6104808201527016ddc6556cdbffffffffffffffffffffff6104a08201527015ecf52776a1ffffffffffffffffffffff6104c08201527015060c256cb2ffffffffffffffffffffff6104e0820152701428a2f98d72ffffffffffffffffffffff6105008201527013545598e5c23fffffffffffffffffffff610520820152701288c4161ce1dfffffffffffffffffffff6105408201527011c592761c666fffffffffffffffffffff61056082015270110a688680a757ffffffffffffffffffff610580820152701056f1b5bedf77ffffffffffffffffffff6105a0820152700faadceceeff8bffffffffffffffffffff6105c0820152700f05dc6b27edadffffffffffffffffffff6105e0820152700e67a5a25da4107fffffffffffffffffff610600820152700dcff115b14eedffffffffffffffffffff610620820152700d3e7a392431239fffffffffffffffffff610640820152700cb2ff529eb71e4fffffffffffffffffff610660820152700c2d415c3db974afffffffffffffffffff610680820152700bad03e7d883f69bffffffffffffffffff6106a0820152700b320d03b2c343d5ffffffffffffffffff6106c0820152700abc25204e02828dffffffffffffffffff6106e0820152700a4b16f74ee4bb207fffffffffffffffff6107008201527009deaf736ac1f569ffffffffffffffffff610720820152700976bd9952c7aa957fffffffffffffffff6107408201527009131271922eaa606fffffffffffffffff6107608201527008b380f3558668c46fffffffffffffffff610780820152700857ddf0117efa215bffffffffffffffff6107a08201527007ffffffffffffffffffffffffffffffff6107c08201527007abbf6f6abb9d087fffffffffffffffff6107e082015270075af62cbac95f7dfa7fffffffffffffff61080082015270070d7fb7452e187ac13fffffffffffffff6108208201527006c3390ecc8af379295fffffffffffffff61084082015270067c00a3b07ffc01fd6fffffffffffffff610860820152700637b647c39cbb9d3d27ffffffffffffff6108808201527005f63b1fc104dbd39587ffffffffffffff6108a08201527005b771955b36e12f7235ffffffffffffff6108c082015270057b3d49dda84556d6f6ffffffffffffff6108e082015270054183095b2c8ececf30ffffffffffffff61090082015270050a28be635ca2b888f77fffffffffffff6109208201527004d5156639708c9db33c3fffffffffffff6109408201527004a23105873875bd52dfdfffffffffffff610960820152700471649d87199aa990756fffffffffffff6109808201527004429a21a029d4c1457cfbffffffffffff6109a0820152700415bc6d6fb7dd71af2cb3ffffffffffff6109c08201527003eab73b3bbfe282243ce1ffffffffffff6109e08201527003c1771ac9fb6b4c18e229ffffffffffff610a00820152700399e96897690418f785257fffffffffff610a20820152700373fc456c53bb779bf0ea9fffffffffff610a4082015270034f9e8e490c48e67e6ab8bfffffffffff610a6082015270032cbfd4a7adc790560b3337ffffffffff610a8082015270030b50570f6e5d2acca94613ffffffffff610aa08201527002eb40f9f620fda6b56c2861ffffffffff610ac08201527002cc8340ecb0d0f520a6af58ffffffffff610ae08201527002af09481380a0a35cf1ba02ffffffffff610b00820152700292c5bdd3b92ec810287b1b3fffffffff610b20820152700277abdcdab07d5a77ac6d6b9fffffffff610b4082015270025daf6654b1eaa55fd64df5efffffffff610b60820152700244c49c648baa98192dce88b7ffffffff610b8082015270022ce03cd5619a311b2471268bffffffff610ba0820152700215f77c045fbe885654a44a0fffffffff610bc08201527001ffffffffffffffffffffffffffffffff610be08201527001eaefdbdaaee7421fc4d3ede5ffffffff610c008201527001d6bd8b2eb257df7e8ca57b09bfffffff610c208201527001c35fedd14b861eb0443f7f133fffffff610c408201527001b0ce43b322bcde4a56e8ada5afffffff610c6082015270019f0028ec1fff007f5a195a39dfffffff610c8082015270018ded91f0e72ee74f49b15ba527ffffff610ca082015270017d8ec7f04136f4e5615fd41a63ffffff610cc082015270016ddc6556cdb84bdc8d12d22e6fffffff610ce082015270015ecf52776a1155b5bd8395814f7fffff610d0082015270015060c256cb23b3b3cc3754cf40ffffff610d208201527001428a2f98d728ae223ddab715be3fffff610d4082015270013545598e5c23276ccf0ede68034fffff610d608201527001288c4161ce1d6f54b7f61081194fffff610d8082015270011c592761c666aa641d5a01a40f17ffff610da0820152700110a688680a7530515f3e6e6cfdcdffff610dc08201527001056f1b5bedf75c6bcb2ce8aed428ffff610de08201526ffaadceceeff8a0890f3875f008277fff610e008201526ff05dc6b27edad306388a600f6ba0bfff610e208201526fe67a5a25da41063de1495d5b18cdbfff610e408201526fdcff115b14eedde6fc3aa5353f2e4fff610e608201526fd3e7a3924312399f9aae2e0f868f8fff610e808201526fcb2ff529eb71e41582cccd5a1ee26fff610ea08201526fc2d415c3db974ab32a51840c0b67edff610ec08201526fbad03e7d883f69ad5b0a186184e06bff610ee08201526fb320d03b2c343d4829abd6075f0cc5ff610f008201526fabc25204e02828d73c6e80bcdb1a95bf610f208201526fa4b16f74ee4bb2040a1ec6c15fbbf2df610f408201526f9deaf736ac1f569deb1b5ae3f36c130f610f608201526f976bd9952c7aa957f5937d790ef65037610f808201526f9131271922eaa6064b73a22d0bd4f2bf610fa08201526f8b380f3558668c46c91c49a2f8e967b9610fc08201526f857ddf0117efa215952912839f6473e6610fe08201529056fea26469706673582212206b855085b00e9aee09f2a2ba9702450bec17750e773c0c3eee3d4a68b9d9f1c564736f6c63430008140033",
  "devdoc": {
    "errors": {
      "AddressEmptyCode(address)": [
        {
          "details": "There's no code at `target` (it is not a contract)."
        }
      ],
      "AddressInsufficientBalance(address)": [
        {
          "details": "The ETH balance of the account is not enough to perform the operation."
        }
      ],
      "FailedInnerCall()": [
        {
          "details": "A call to an address target failed. The target may have reverted."
        }
      ],
      "ReentrancyGuardReentrantCall()": [
        {
          "details": "Unauthorized reentrant call."
        }
      ],
      "SafeERC20FailedOperation(address)": [
        {
          "details": "An operation with an ERC20 token failed."
        }
      ]
    },
    "kind": "dev",
    "methods": {
      "addLiquidityToPool(uint32,uint256,uint256,uint256,uint256,uint256)": {
        "details": "Add liquidity to existing pool (for users after campaign completion)",
        "params": {
          "_campaignId": "ID of the campaign",
          "_deadline": "Transaction deadline",
          "_minTokenLiquidity": "Minimum tokens for liquidity",
          "_minUsdcLiquidity": "Minimum USDC for liquidity",
          "_tokenAmount": "Amount of tokens to add",
          "_usdcAmount": "Amount of USDC to add"
        }
      },
      "getAllCampaignsPaginated(uint32,uint32)": {
        "details": "Get all campaigns with pagination",
        "params": {
          "_limit": "Number of campaigns to return (max 50)",
          "_offset": "Starting index for pagination (0-based)"
        },
        "returns": {
          "campaignsLocal": "Array of campaign info",
          "hasMore": "Whether there are more campaigns after this page",
          "total": "Total number of campaigns"
        }
      },
      "getCampaignsByCreator(address)": {
        "details": "Get campaigns created by a user by iterating through all campaigns This is less gas efficient but works without modifying the parent contract"
      },
      "getSummaryStats()": {
        "details": "Get summary statistics",
        "returns": {
          "activeCampaigns": "Number of active campaigns  ",
          "cancelledCampaigns": "Number of cancelled campaigns",
          "completedCampaigns": "Number of completed campaigns",
          "expiredCampaigns": "Number of expired campaigns",
          "totalCampaigns": "Total number of campaigns",
          "totalFundingRaised": "Total USDC raised across all campaigns"
        }
      },
      "getSwapAmountOut(uint32,uint256)": {
        "details": "Get expected swap output for debugging",
        "params": {
          "_campaignId": "ID of the campaign",
          "_tokenAmountIn": "Amount of tokens to swap"
        },
        "returns": {
          "expectedUsdcOut": "Expected USDC output"
        }
      },
      "getTokenAmountOut(uint32,uint256)": {
        "details": "Get expected token output when swapping USDC",
        "params": {
          "_campaignId": "ID of the campaign",
          "_usdcAmountIn": "Amount of USDC to swap"
        },
        "returns": {
          "expectedTokenOut": "Expected token output"
        }
      },
      "getUserTotalInvestment(address)": {
        "details": "Get user's total investment across all campaigns",
        "params": {
          "_user": "The user's address"
        },
        "returns": {
          "campaignsParticipated": "Number of campaigns the user participated in",
          "totalInvestment": "Total USDC amount invested by the user"
        }
      },
      "previewPurchase(uint32,uint256)": {
        "details": "Preview tokens received for USDC amount"
      },
      "swapTokenForUsdc(uint32,uint256,uint256,uint256)": {
        "details": "Swap campaign token for USDC using Uniswap pool",
        "params": {
          "_campaignId": "ID of the campaign",
          "_deadline": "Transaction deadline",
          "_minUsdcOut": "Minimum USDC expected (for slippage protection)",
          "_tokenAmount": "Amount of tokens to swap"
        }
      }
    },
    "version": 1
  },
  "userdoc": {
    "kind": "user",
    "methods": {},
    "version": 1
  },
  "storageLayout": {
    "storage": [
      {
        "astId": 1966,
        "contract": "contracts/LaunchpadV2.sol:LaunchpadV2",
        "label": "_status",
        "offset": 0,
        "slot": "0",
        "type": "t_uint256"
      },
      {
        "astId": 3787,
        "contract": "contracts/LaunchpadV2.sol:LaunchpadV2",
        "label": "parentContract",
        "offset": 0,
        "slot": "1",
        "type": "t_contract(IParentContract)3778"
      },
      {
        "astId": 3790,
        "contract": "contracts/LaunchpadV2.sol:LaunchpadV2",
        "label": "usdcToken",
        "offset": 0,
        "slot": "2",
        "type": "t_contract(IERC20)1274"
      },
      {
        "astId": 3793,
        "contract": "contracts/LaunchpadV2.sol:LaunchpadV2",
        "label": "uniswapRouter",
        "offset": 0,
        "slot": "3",
        "type": "t_contract(IUniswapV2Router)7837"
      },
      {
        "astId": 3796,
        "contract": "contracts/LaunchpadV2.sol:LaunchpadV2",
        "label": "uniswapFactory",
        "offset": 0,
        "slot": "4",
        "type": "t_contract(IUniswapV2Factory)7581"
      }
    ],
    "types": {
      "t_contract(IERC20)1274": {
        "encoding": "inplace",
        "label": "contract IERC20",
        "numberOfBytes": "20"
      },
      "t_contract(IParentContract)3778": {
        "encoding": "inplace",
        "label": "contract IParentContract",
        "numberOfBytes": "20"
      },
      "t_contract(IUniswapV2Factory)7581": {
        "encoding": "inplace",
        "label": "contract IUniswapV2Factory",
        "numberOfBytes": "20"
      },
      "t_contract(IUniswapV2Router)7837": {
        "encoding": "inplace",
        "label": "contract IUniswapV2Router",
        "numberOfBytes": "20"
      },
      "t_uint256": {
        "encoding": "inplace",
        "label": "uint256",
        "numberOfBytes": "32"
      }
    }
  }
}